{
  "_format": "hh-sol-artifact-1",
  "contractName": "Counter",
  "sourceName": "contracts/Counter.sol",
  "abi": [
    {
      "inputs": [],
      "name": "count",
      "outputs": [],
      "stateMutability": "nonpayable",
      "type": "function"
    },
    {
      "inputs": [],
      "name": "getCounter",
      "outputs": [
        {
          "internalType": "uint256",
          "name": "",
          "type": "uint256"
        }
      ],
      "stateMutability": "view",
      "type": "function"
    }
  ],
  "bytecode": "0x6080604052348015600f57600080fd5b506103828061001f6000396000f3fe608060405234801561001057600080fd5b50600436106100365760003560e01c806306661abd1461003b5780638ada066e14610045575b600080fd5b610043610063565b005b61004d6100bd565b60405161005a91906101cb565b60405180910390f35b60008081548092919061007590610215565b91905055506100bb6040518060400160405280600e81526020017f436f756e746572206973206e6f770000000000000000000000000000000000008152506000546100c6565b565b60008054905090565b61015e82826040516024016100dc9291906102ed565b6040516020818303038152906040527fb60e72cc000000000000000000000000000000000000000000000000000000007bffffffffffffffffffffffffffffffffffffffffffffffffffffffff19166020820180517bffffffffffffffffffffffffffffffffffffffffffffffffffffffff8381831617835250505050610162565b5050565b6101798161017161017c61019d565b63ffffffff16565b50565b60006a636f6e736f6c652e6c6f679050600080835160208501845afa505050565b6101a8819050919050565b6101b061031d565b565b6000819050919050565b6101c5816101b2565b82525050565b60006020820190506101e060008301846101bc565b92915050565b7f4e487b7100000000000000000000000000000000000000000000000000000000600052601160045260246000fd5b6000610220826101b2565b91507fffffffffffffffffffffffffffffffffffffffffffffffffffffffffffffffff8203610252576102516101e6565b5b600182019050919050565b600081519050919050565b600082825260208201905092915050565b60005b8381101561029757808201518184015260208101905061027c565b60008484015250505050565b6000601f19601f8301169050919050565b60006102bf8261025d565b6102c98185610268565b93506102d9818560208601610279565b6102e2816102a3565b840191505092915050565b6000604082019050818103600083015261030781856102b4565b905061031660208301846101bc565b9392505050565b7f4e487b7100000000000000000000000000000000000000000000000000000000600052605160045260246000fdfea2646970667358221220992ced9ab252ff08d84a558d4d1148045410600d05a3657604b0fe301dbcd58364736f6c634300081b0033",
  "linkReferences": {},
  "deployedLinkReferences": {}
}